:100000000C94DF000C9407010C9407010C94070179
:100010000C9407010C9407010C9407010C94070140
:100020000C9407010C9407010C9407010C94070130
:100030000C9407010C9407010C9407010C94070120
:100040000C9435050C9407010C94C9040C94A3047A
:100050000C9407010C9407010C9407010C94070100
:100060000C947F050C94070100407A10F35A00A00D
:10007000724E18090010A5D4E80000E87648170071
:1000800000E40B54020000CA9A3B000000E1F505B1
:10009000000080969800000040420F000000A086FB
:1000A00001000000102700000000E803000000002D
:1000B0006400000000000A000000000001000000D1
:1000C00000002C76D888DC674F0823DFC1DFAE59EB
:1000D000E1B1B796E5E3E453C63AE651997696E87E
:1000E000E6C28426EB898C9B62ED407C6FFCEFBC02
:1000F0009C9F40F2BAA56FA5F490055A2AF75C932D
:100100006B6CF9676DC11BFCE0E40D47FEF520E662
:10011000B500D0ED902E0300943577050080841E45
:10012000080000204E0A000000C80C333333330FA0
:10013000986E12831141EF8D2114893BE65516CF3D
:10014000FEE6DB18D1844B381BF77C1D901DA4BB49
:10015000E424203284725E228100C9F124ECA1E5FE
:100160003D2700000000240027002A0000000000B6
:10017000250028002B000000000023002600290095
:10018000040404040404040402020202020203033D
:100190000303030301020408102040800102040845
:1001A00010200102040810200000000800020100D5
:1001B000000304070000000000000000120C1124DE
:1001C0001FBECFEFD8E0DEBFCDBF22E0A4E6B1E096
:1001D00001C01D92A93EB207E1F711E0A0E0B1E035
:1001E000E6E1F7E202C005900D92A436B107D9F717
:1001F00010E0CFEDD0E004C02197FE010E947711FE
:10020000CE3DD107C9F70E943C090C9489130C9488
:100210000000CF92DF92EF92FF920F931F93CF9344
:10022000DF936C017A018B01C0E0D0E0CE15DF05D1
:1002300089F0D8016D918D01D601ED91FC9101906D
:10024000F081E02DC6010995892B11F47E0102C0D1
:100250002196ECCFC701DF91CF911F910F91FF90B5
:10026000EF90DF90CF900895FC01538D448D252FA2
:1002700030E0842F90E0821B930B541710F0CF9640
:10028000089501970895FC01918D828D981761F072
:10029000828DDF01A80FB11D5D968C91928D9F5FBD
:1002A0009F73928F90E008958FEF9FEF0895FC0168
:1002B000918D828D981731F0828DE80FF11D858D1B
:1002C00090E008958FEF9FEF0895FC01918D228DAE
:1002D000892F90E0805C9F4F821B91098F73992733
:1002E000089586E292E00E94650121E0892B09F4DD
:1002F00020E0822F0895FC01848DDF01A80FB11D3D
:10030000A35ABF4F2C91848D90E001968F7399274B
:10031000848FA689B7892C93A089B1898C91806438
:100320008C93938D848D981306C00288F389E02DF9
:1003300080818F7D80830895EF92FF920F931F93AA
:10034000CF93DF93EC0181E0888F9B8D8C8D981388
:1003500005C0E889F989808185FD24C0F62E0B8DC2
:1003600010E00F5F1F4F0F731127E02E8C8DE812E6
:100370000CC00FB607FCFACFE889F989808185FFA8
:10038000F5CFCE010E947B01F1CF8B8DFE01E80FEE
:10039000F11DE35AFF4FF0820B8FEA89FB898081C0
:1003A000806207C0EE89FF896083E889F9898081CE
:1003B0008064808381E090E0DF91CF911F910F9165
:1003C000FF90EF900895CF93DF93EC01888D882301
:1003D000C9F0EA89FB89808185FD05C0A889B989B2
:1003E0008C9186FD0FC00FB607FCF5CF808185FF8D
:1003F000F2CFA889B9898C9185FFEDCFCE010E94FB
:100400007B01E7CFDF91CF91089580E090E0892BC9
:1004100029F00E94710181110C940000089583302D
:1004200081F028F4813099F08230A1F0089587306E
:10043000A9F08830B9F08430D1F4809180008F7DAC
:1004400003C0809180008F7780938000089584B5E9
:100450008F7702C084B58F7D84BD08958091B000F0
:100460008F7703C08091B0008F7D8093B000089596
:100470001F93CF93DF93282F30E0F901E855FE4F0B
:100480008491F901EC56FE4FD491F901E058FE4FEA
:10049000C491CC23C9F0162F81110E940F02EC2FBA
:1004A000F0E0EE0FFF1FE459FE4FA591B4918FB716
:1004B000F894111105C09C91ED2FE095E92302C03D
:1004C000EC91ED2BEC938FBFDF91CF911F910895AD
:1004D000CF93DF9390E0FC01EC56FE4F2491FC019A
:1004E000E058FE4F8491882361F190E0880F991FB6
:1004F000FC01EE59FE4FC591D491FC01E459FE4F29
:10050000A591B491611109C09FB7F8948881209595
:1005100082238883EC912E230BC0623061F49FB755
:10052000F8943881822F809583238883EC912E2B39
:100530002C939FBF06C08FB7F894E8812E2B288399
:100540008FBFDF91CF9108951F93CF93DF93182F23
:10055000EB0161E00E946802209711F460E004C0A2
:10056000CF3FD10539F461E0812FDF91CF911F9109
:100570000C943802E12FF0E0E855FE4FE491E330AF
:10058000F9F048F4E130B9F0E230A1F584B58062C9
:1005900084BDC8BD34C0E730E9F0E83019F1E4307B
:1005A00049F580918000806280938000D0938B0019
:1005B000C0938A0024C084B5806884BDC7BD1FC0B5
:1005C00080918000806880938000D0938900C093E0
:1005D000880015C08091B00080688093B000C093FF
:1005E000B3000DC08091B00080628093B000C093D2
:1005F000B40005C0C038D1050CF0B5CFAFCFDF9146
:10060000CF911F9108953FB7F8948091B0019091D8
:10061000B101A091B201B091B30126B5A89B05C06C
:100620002F3F19F00196A11DB11D3FBFBA2FA92F71
:10063000982F8827820F911DA11DB11DBC01CD01EE
:1006400042E0660F771F881F991F4A95D1F70895DA
:1006500085ED8093BC008091BC0084FDFCCF10929E
:100660000202089540918601262F30E0240F311DAB
:1006700021323105DCF4209102022430C9F4FC015E
:1006800080E090E0861758F4309186012191DC01DA
:10069000AC59BE4FA30FB11D2C930196F3CF80919F
:1006A0008601680F6093860180E0089581E00895D7
:1006B00082E008950895E091BB018091BA01E817A6
:1006C00030F4F0E0E454FE4F808190E008958FEF25
:1006D0009FEF08959091BB018091BA01981750F453
:1006E000E92FF0E0E454FE4F208130E09F5F9093CB
:1006F000BB0102C02FEF3FEFC90108958091BA01FD
:1007000090E02091BB01821B91090895CF92DF9266
:10071000EF92FF920F931F93CF93DF937C01262FCD
:10072000972F8A0180912502882391F0C62FD72F19
:100730006E01C40ED51ECC15DD0571F06991D7018F
:10074000ED91FC910190F081E02DC7010995F3CF67
:10075000642F822F0E943203C801DF91CF911F9135
:100760000F91FF90EF90DF90CF900895CF93DF939C
:100770001F92CDB7DEB76983209125022223D1F0E5
:1007800020912302203240F021E030E0FC0133834D
:10079000228380E090E015C080912402E82FF0E0F1
:1007A000ED5FFD4F998190838F5F8093240280934A
:1007B000230205C061E0CE0101960E94320381E070
:1007C00090E00F90DF91CF910895089580E090E040
:1007D0000895CF93DF93EC0188819981009711F000
:1007E0000E941212198218821D821C821B821A8298
:1007F000DF91CF9108950E9474130F931F93CF93AD
:10080000DF93EC0188819981009729F02A813B814F
:100810002617370788F48B016F5F7F4F0E94AA125B
:10082000009761F0998388831B830A832C813D8123
:10083000232B11F4FC01108281E001C080E0DF91E4
:10084000CF911F910F910895EF92FF920F931F93F5
:10085000CF93DF93EC01FB0184819581E080F180EF
:100860000C811D81E114F104B1F00097B9F0080F7B
:10087000191FB801CE010E94FD03882361F0288171
:1008800039818C819D81B701820F931F0E94821351
:100890001D830C8303C0CE010E94E903CE01DF91CA
:1008A000CF911F910F91FF90EF900895CF92DF921B
:1008B000EF92FF920F931F93CF93DF93CDB7DEB7E5
:1008C000A1970FB6F894DEBF0FBECDBF7C01CB0160
:1008D000BA01F701118210821382128215821482EA
:1008E00042E0420F8E010F5F1F4F0E945C0C6C01B3
:1008F000009771F0FC0101900020E9F731978F011A
:10090000081B190BB801C7010E94FD03811104C027
:10091000C7010E94E90308C0F70115830483B601EB
:10092000808191810E948213A1960FB6F894DEBF58
:100930000FBECDBFDF91CF911F910F91FF90EF9030
:10094000DF90CF9008951F920F920FB60F9211244F
:100950002F933F934F935F936F937F938F939F93C7
:10096000AF93BF93EF93FF9386E292E00E947B01E7
:10097000FF91EF91BF91AF919F918F917F916F9177
:100980005F914F913F912F910F900FBE0F901F904D
:1009900018951F920F920FB60F9211242F938F93D9
:1009A0009F93EF93FF93E0913602F091370280819D
:1009B000E0913C02F0913D0282FD12C09081809155
:1009C0003F028F5F8F7320914002821751F0E091B8
:1009D0003F02F0E0EA5DFD4F958F80933F0201C03A
:1009E0008081FF91EF919F918F912F910F900FBE7A
:1009F0000F901F9018958F929F92AF92BF92CF92B7
:100A0000DF92EF92FF926B017C010E9403034B0186
:100A10005C01C114D104E104F104F1F00E9403036C
:100A2000DC01CB0188199909AA09BB09883E9340CA
:100A3000A105B10570F321E0C21AD108E108F1085F
:100A400088EE880E83E0981EA11CB11CC114D1044D
:100A5000E104F10419F7DDCFFF90EF90DF90CF9024
:100A6000BF90AF909F908F9008951F920F920FB6F6
:100A70000F9211242F933F938F939F93AF93BF9324
:100A80008091AC019091AD01A091AE01B091AF0108
:100A90003091AB0123E0230F2D3720F40196A11DE7
:100AA000B11D05C026E8230F0296A11DB11D20939C
:100AB000AB018093AC019093AD01A093AE01B093D4
:100AC000AF018091B0019091B101A091B201B091BC
:100AD000B3010196A11DB11D8093B0019093B101A6
:100AE000A093B201B093B301BF91AF919F918F9149
:100AF0003F912F910F900FBE0F901F9018951F924E
:100B00000F920FB60F9211242F933F934F935F9341
:100B10006F937F938F939F93AF93BF93EF93FF93C5
:100B20008091B900887F803609F49CC068F58832CE
:100B300009F45BC090F4803109F454C038F4882380
:100B400009F4F6C0883009F44DC0F6C0883109F4C4
:100B50004CC0803209F45DC0EFC0803409F468C035
:100B600048F4803309F455C0883309F0E5C0809318
:100B70000002D8C0803509F44FC0883509F45DC043
:100B8000883409F0D9C0D6C0883909F4C7C0A8F4A0
:100B9000883709F467C038F4883609F463C08037B1
:100BA00009F460C0C9C0883809F4B8C0803909F4B4
:100BB0005FC0803809F0C0C05BC0803B09F486C0CC
:100BC00038F4803A09F466C0883A09F47FC0B4C0AA
:100BD000803C09F4A7C0883C09F4A4C0883B09F410
:100BE0008AC0AAC08091DD0110C09091FF01809160
:100BF000FE01981770F5E091FF0181E08E0F809360
:100C0000FF01F0E0E252FE4F80818093BB0085EC53
:100C100086C0809300028EC0E091FF0181E08E0FBC
:100C20008093FF018091BB00F0E0E252FE4F808391
:100C30009091FF018091FE016EC0E091FF0181E083
:100C40008E0F8093FF018091BB00F0E0E252FE4FD7
:100C500080838091010281116DC081E08093DC016D
:100C600084EA61C083E0809302021092AA01CFCF90
:100C70008091AA01803208F051C0E091AA0181E080
:100C80008E0F8093AA018091BB00F0E0E657FE4FE3
:100C90008083BDCF85EC8093BC00109202028091CE
:100CA000AA01803230F4E091AA01F0E0E657FE4F4D
:100CB00010826091AA0170E0E0918801F0918901B1
:100CC0008AE891E009951092AA0136C084E08093E9
:100CD00002021092870110928601E0918401F09146
:100CE0008501099580918601811105C081E080937D
:100CF000860110926401E091870181E08E0F80935C
:100D00008701F0E0EC59FE4F80818093BB00909109
:100D1000870180918601981708F479CF85E8809340
:100D2000BC000AC085EC8093BC001092020204C093
:100D3000109200020E942803FF91EF91BF91AF91A2
:100D40009F918F917F916F915F914F913F912F91E3
:100D50000F900FBE0F901F901895862798E037E0F0
:100D6000282F220F87FF03C0822F832701C0822FE5
:100D70009150B1F70895CF93DF93C091D002D091F5
:100D8000D102BC01990F880B990B209719F40E948E
:100D9000E90E25C00E94E90E2AE037ED43EA5CE344
:100DA0000E94480FC130D105D1F023E333E948E870
:100DB00053E40E943D10239791F420E030E040E19D
:100DC00051E40E94480F20E030E040EA50E40E94E5
:100DD000AA1020E030E040E052E40E943E10DF9193
:100DE000CF9108958091D4029091D5020C94BB06C6
:100DF000009769F0FC0101900020E9F73197AF01FD
:100E0000481B590BBC0186E292E00C94090180E07A
:100E100090E008958F929F92AF92BF920F931F938D
:100E2000CF93DF93CDB7DEB7A1970FB6F894DEBFAF
:100E30000FBECDBF19A2423008F44AE08E010F5D0B
:100E40001F4F842E912CA12CB12CA50194010E943E
:100E50005511E62FB901CA0101501109EA3014F405
:100E6000E05D01C0E95CD801EC93232B242B252BFA
:100E700061F7C8010E94F806A1960FB6F894DEBF8C
:100E80000FBECDBFDF91CF911F910F91BF90AF905B
:100E90009F908F900895CF93DF930E94F806EC0106
:100EA00087E491E00E94F8068C0F9D1FDF91CF919F
:100EB00008954F925F926F927F928F929F92AF921E
:100EC000BF92CF92DF92EF92FF926B017C019B0168
:100ED000AC010E945011882319F087E591E01AC0F7
:100EE00046015701E894B7F82FEF3FEF4FE75FE770
:100EF000C501B4010E945011811110C02FEF3FEFC6
:100F00004FE75FE7C501B4010E94E20E181634F402
:100F10008BE591E00E94F8067C018FC02FEF3FEF38
:100F20004FE75FE4C701B6010E944B1118161CF48D
:100F30008FE591E0EFCF2FEF3FEF4FE75FECC70179
:100F4000B6010E94E20E87FDF3CF20E030E0A90158
:100F5000C701B6010E94E20E87FF11C0E091260290
:100F6000F09127020190F081E02D6DE286E292E09F
:100F700009955C01F7FAF094F7F8F09402C0A12CFF
:100F8000B12C2AE037ED43EA5BE3C701B6010E94CA
:100F90003E102B013C010E941C116B017C010E9440
:100FA000E70E9B01AC01C301B2010E943D102B0171
:100FB0003C014AE0C701B6010E940A077C01EA0C25
:100FC000FB1CE0912602F09127020190F081E02DB8
:100FD0006EE286E292E00995E80EF91E20E030E02C
:100FE00040E251E4C301B2010E94480F2B013C01D1
:100FF0000E941C114B01A12CB12C4AE0C501B40187
:101000000E940A07E80EF91EC501B4010E94E70E0E
:101010009B01AC01C301B2010E943D1020E030E011
:1010200040E251E40E94480F0E941C1180E090E0D1
:101030004AE00E940A07E80EF91E87E491E00E9448
:10104000F8068E0D9F1DFF90EF90DF90CF90BF9020
:10105000AF909F908F907F906F905F904F9008958A
:101060008F929F92AF92BF92CF92DF92EF92FF92B8
:101070000F931F93CF93DF931F92CDB7DEB7C82E88
:101080007B01D090CF0281E080932502D092E402D0
:1010900010922402109223026C2D83EC92E00E94A5
:1010A000B60380912302813208F045C0909102027C
:1010B0009111FCCF92E090930202109201029FEFF7
:1010C000909300021092FF018093FE01A3E0B2E032
:1010D0002EED31E0F9019E2F921B981718F49D9187
:1010E0009193F9CF1092DD018091DD01DD0C8D2906
:1010F0008093DD018091DC01813061F41092DC018C
:101100008091DD018093BB008091BC0083FDF8CF0E
:1011100085EC01C085EE8093BC0080910202823094
:10112000E1F3809100028F3F31F080910002803224
:1011300011F080910002109224021092230210926A
:1011400025029091CF02D0900202D110FCCF81E015
:1011500080930202809301022FEF209300021092ED
:10116000FF0122E02093FE018093DD012091DD014B
:10117000990F922B9093DD018091DC01813061F415
:101180001092DC018091DD018093BB008091BC0056
:1011900083FDF8CF85EC01C085EE8093BC00809183
:1011A00002028130E1F38091FF01833018F4209135
:1011B000FF0101C023E0AEEDB1E04CEB51E0FA01DC
:1011C0008E2F841B821718F48D918193F9CF109282
:1011D000BB012093BA0188EEA82E83E0B82E2330FD
:1011E00068F481E0A81AB108C0F161E070E080E025
:1011F00090E029830E94FB042981F1CFAB2869F19B
:1012000083EC92E00E946A03882E83EC92E00E94B5
:101210006A03B82E83EC92E00E946A03A82E909095
:10122000CF02990C692D80E00E94AD066C2D0E94C2
:10123000AD0661E0690D0E94AD06682D0E94AD0605
:101240006B2D0E94AD068A1108C01B2D00E00829F5
:10125000F70111830083DD24D3948D2D0F90DF914E
:10126000CF911F910F91FF90EF90DF90CF90BF90A3
:10127000AF909F908F900895CF93DF93CDB7DEB757
:101280002C970FB6F894DEBF0FBECDBF789484B50F
:10129000826084BD84B5816084BD85B5826085BD72
:1012A00085B5816085BD80916E00816080936E0000
:1012B00010928100809181008260809381008091F2
:1012C00081008160809381008091800081608093A3
:1012D00080008091B10084608093B1008091B00063
:1012E00081608093B00080917A00846080937A005E
:1012F00080917A00826080937A0080917A00816088
:1013000080937A0080917A00806880937A001092AE
:10131000C10062E08AE00E94680261E086E00E940B
:10132000680261E089E00E94680261E085E00E9455
:10133000680261E083E00E946802E0913602F09169
:10134000370282E08083E0913202F0913302108212
:10135000E0913402F09135028FEC808310923E02CE
:10136000E0913A02F0913B0286E08083E0913802FE
:10137000F0913902808180618083E0913802F091A0
:101380003902808188608083E0913802F0913902CF
:10139000808180688083E0913802F09139028081F9
:1013A0008F7D80838AE58093CF021092BB011092DB
:1013B000BA0110922402109223021092020281E0DC
:1013C000809301021092DC0161E082E10E94380208
:1013D00061E083E10E9438028091B9008E7F8093A2
:1013E000B9008091B9008D7F8093B90088E4809323
:1013F000B80085E48093BC0083E090E09093D10234
:101400008093D00292EB892E91E0992E2EE9222E24
:1014100021E0322E3AE8A32E31E0B32E01E010E0B5
:10142000F4018491F101E490F501F490FF2071F052
:1014300081110E940F02EF2DF0E0EE0FFF1FEA581E
:10144000FE4FA591B4918C91E822D9F42091B80176
:101450003091B9018091B6019091B701232B09F029
:101460006CC1009709F069C18AE291E00E94F80618
:101470006FEF70E089E00E94A4021093B70100931F
:10148000B601BE016F5F7F4F87E00E94300888235E
:1014900009F430C189819A8197FD2CC19093D502BE
:1014A0008093D402BE016F5F7F4F86E00E943008B8
:1014B000882309F41FC189819A819093D302809374
:1014C000D2020E94F206AB01BC0122E0CE010796D7
:1014D0000E9456041A8219821C821B821E821D825F
:1014E00068E070E0CE0101960E94FD03811105C005
:1014F000CE0101960E94E9030AC088E090E09E8335
:101500008D8362E371E089819A810E948213BE011A
:10151000695F7F4FCE0101960E942404FC01448143
:1015200055816081718186E292E00E940901898182
:101530009A810E9412128F8198850E94121260EB8C
:1015400086E292E00E949C018BE391E00E944B07AF
:101550008091D2029091D3020E94BB06AB01BC01E4
:1015600022E0CE0107960E9456041A8219821C823C
:101570001B821E821D8269E070E0CE0101960E94EE
:10158000FD03811105C0CE0101960E94E9030AC046
:1015900089E090E09E838D836DE371E089819A817B
:1015A0000E948213BE01695F7F4FCE0101960E94A7
:1015B0002404FC01448155816081718186E292E0BE
:1015C0000E94090189819A810E9412128F81988557
:1015D0000E94121260EB86E292E00E949C018BE373
:1015E00091E00E944B0787E491E00E94F8060E9478
:1015F000F2062B013C0120E030E04EE053E40E9473
:101600004B11181654F460E070E089E00E94A402C7
:101610001093B9010093B8016DC020E030E049E0BB
:1016200053E4C301B2010E944B11181694F46FEFFA
:1016300070E086E00E94A40260E070E083E00E9417
:10164000A40260E070E085E00E94A4028AE491E0D8
:10165000A4C020E030E044E053E4C301B2010E94A2
:101660004B11181654F420E030E049E053E4C30174
:10167000B2010E94E20E87FD7FC020E030E040EF23
:1016800052E4C301B2010E944B1118160CF462C05F
:1016900020E030E040EF52E4C301B2010E94E20ECC
:1016A000E090D202F090D30287FD7AC0C7010E9479
:1016B000BB066B017C0120E030E040E251E40E9477
:1016C0003E109B01AC01C301B2010E94E20E87FDF6
:1016D0008DC020E030E040E251E4C701B6010E9435
:1016E0003D109B01AC01C301B2010E944B111816C1
:1016F0000CF47CC064EF71E080E090E00E94FB0499
:101700008091B4019091B50101969093B5018093B9
:10171000B40181977CF08091B6019091B701019757
:1017200049F460E070E089E00E94A4021092B501E3
:101730001092B4010E94050273CE892B09F4A1CE48
:1017400060E070E089E00E94A4021092B70110925C
:10175000B60197CE20E030E044E053E4C301B2018B
:101760000E94E20E87FF94CF6FEF70E086E00E9448
:10177000A4026FEF70E007C06FEF70E086E00E9498
:10178000A4026EEA70E083E00E94A40260E070E0D0
:1017900085E00E94A4028FE491E00E944B07AACF4B
:1017A000C7010E94BB0620E030E040E251E40E9405
:1017B0003E109B01AC01C301B2010E944B111816EF
:1017C0000CF074CF60E070E086E00E94A40260E05C
:1017D00070E083E00E94A4026FEF70E085E00E9459
:1017E000A40283E591E00E944B0717C060E070E01F
:1017F00086E00E94A4026FEF70E083E00E94A402E2
:1018000060E070E085E00E94A40283E591E00E9420
:101810004B071092B9011092B8010E94F2060E9483
:10182000590768CFE6E2F2E01382128288EE93E075
:10183000A0E0B0E084839583A683B7832AE031E0FB
:101840003183208325EC30E03587248724EC30E099
:101850003787268720EC30E0318B208B21EC30E07D
:10186000338B228B22EC30E0358B248B26EC30E05E
:10187000378B268B118E128E138E148EE3ECF2E0D2
:101880001382128284839583A683B7838CE191E0CF
:1018900091838083EFECF2E0108282E090E092830B
:1018A0008183168215821482138210861782128613
:1018B0001186148613860895EF920F931F93CF938A
:1018C000DF93E80147FD02C034E001C034E1E42FBA
:1018D000440FFF0BF7FF03C0F195E195F109E32EEB
:1018E000022F2E2FAE010E947C0CCE01DF91CF91F2
:1018F0001F910F91EF9008954F925F926F927F9298
:101900009F92AF92BF92CF92DF92EF92FF920F938E
:101910001F93CF93DF93CDB7DEB729970FB6F89417
:10192000DEBF0FBECDBF6A01122FB02E2BE32017F2
:1019300020F0FF24F394F00E02C0BCE3FB2E0F2D29
:1019400027E0AE014F5F5F4F0E940A0EAC01898114
:10195000982F9970913031F0E1FC06C0E0FE06C08E
:1019600090E205C09DE203C09BE201C090E0EE2D35
:10197000E07183FF3CC0911102C083E001C084E0AC
:10198000811718F4212F281B01C020E0E1110BC0A2
:10199000F601822F30E2882319F031938150FBCF7A
:1019A000C20ED11C20E0992329F0D6019C93F601A8
:1019B00031966F01C6010396E2FE0AC03EE4D601ED
:1019C0003C9341E411964C93119712963C9306C0B8
:1019D0003EE6F601308341E641833283FC01322F3B
:1019E00040E2332309F442C041933150FACF82FFE1
:1019F00044C0911102C083E001C084E0811718F453
:101A0000212F281B01C020E0E1110BC0F601822F1D
:101A100030E2882319F031938150FBCFC20ED11CE4
:101A200020E0992329F0D6019C93F60131966F01AD
:101A3000C6010396E2FE0BC039E4D6013C933EE4B6
:101A400011963C93119736E412963C9307C039E601
:101A5000F60130833EE6318336E63283FC01322FD5
:101A600040E2332319F041933150FBCFFC01E20FE8
:101A7000F11D10828EEF9FEFB7C0F1E0911101C010
:101A8000F0E06F2F70E01416150624F49A012F5F12
:101A90003F4F02C021E030E0260F371FBB2029F066
:101AA0006B2D70E06F5F7F4F02C060E070E0260F2B
:101AB000371F612F70E0261737071CF4121B212FE8
:101AC00001C020E03E2D387159F4D601322F60E27A
:101AD000332319F06D933150FBCFC20ED11C20E09F
:101AE000FF2331F0D6019C93B6016F5F7F4F6B01EE
:101AF000E1110BC0F601922F30E3992319F03193D5
:101B00009150FBCFC20ED11C20E09F2D940F3A8143
:101B1000782F7071A72E84FF03C0313309F49150E0
:101B2000191624F4993018F098E001C091E0E42FE0
:101B3000852F57FF02C0E0E080E06E2F782FE0E0B5
:101B4000F0E0AEE29A2E3A01691A71082A01461AAB
:101B5000570A0B2D10E01195019511096F3F8FEF7A
:101B6000780729F4D6019C92C60101966C014617AC
:101B7000570784F0661677066CF47F01E40CF51CB9
:101B8000A1E0B0E0AC0FBD1FEA0EFB1ED70111961D
:101B9000BC9002C090E3B92E615071093196C60124
:101BA00001967C016017710724F0D601BC926C018C
:101BB000D5CF6417750741F4363320F4353321F45B
:101BC000A11002C081E3B82EF601B082F701822F86
:101BD00090E2882319F091938150FBCFF701E20F37
:101BE000F11D108280E090E029960FB6F894DEBFD8
:101BF0000FBECDBFDF91CF911F910F91FF90EF905E
:101C0000DF90CF90BF90AF909F907F906F905F904C
:101C10004F900895283008F027E03327DA01990F14
:101C2000311D87FD916000966105710539F43260C0
:101C30002E5F3D9330E32A95E1F708959F3F30F002
:101C400080387105610509F03C5F3C5F3D93913040
:101C500008F08068911DDF93CF931F930F93FF923D
:101C6000EF92192F987F9695E92F96959695E90F03
:101C7000FF27EE53FF4F99273327EE24FF24A701B8
:101C8000E70105900894079428F4360FE71EF81E24
:101C9000491F511D660F771F881F991F0694A1F7D2
:101CA0000590079428F4E70EF81E491F561FC11D22
:101CB000770F881F991F661F0694A1F70590079458
:101CC00028F4F80E491F561FC71FD11D880F991FF2
:101CD000661F771F0694A1F70590079420F4490F1B
:101CE000561FC71FD81F990F661F771F881F06949E
:101CF000A9F784911095177041F0D695C79557951F
:101D00004795F794E7941A95C1F7E8E6F0E06894F0
:101D10001590159135916591959105907FE2739598
:101D2000E118F10A430B560BC90BD009C0F7E10CBF
:101D3000F11E431F561FC91FD01D7EF4703311F4CE
:101D40008A95E6CFE894015030F0080F0AF4002796
:101D5000021708F4202F2395022F7A3328F079E315
:101D60007D932A95E9F710C07D932A9589F606940C
:101D700097956795379517951794E118F10A430BD6
:101D8000560BC90BD00998F023957E9173957A3341
:101D900008F070E37C932013B8F77E9170617D9317
:101DA00030F0839571E37D9370E32A95E1F7112478
:101DB000EF90FF900F911F91CF91DF91992787FDB1
:101DC000909508950E94240F08F481E00895E89406
:101DD00009C097FB3EF490958095709561957F4F73
:101DE0008F4F9F4F9923A9F0F92F96E9BB27939521
:101DF000F695879577956795B795F111F8CFFAF431
:101E0000BB0F11F460FF1BC06F5F7F4F8F4F9F4F61
:101E100016C0882311F096E911C0772321F09EE8BF
:101E2000872F762F05C0662371F096E8862F70E025
:101E300060E02AF09A95660F771F881FDAF7880FFF
:101E40009695879597F90895990F0008550FAA0B55
:101E5000E0E8FEEF16161706E807F907C0F01216BD
:101E60001306E407F50798F0621B730B840B950BC0
:101E700039F40A2661F0232B242B252B21F4089515
:101E80000A2609F4A140A6958FEF811D811D0895B2
:101E90000E945B0F0C94CC0F0E94BE0F38F00E9482
:101EA000C50F20F0952311F00C94B50F0C94BB0FC7
:101EB00011240C9400100E94DD0F70F3959FC1F364
:101EC000950F50E0551F629FF001729FBB27F00DE8
:101ED000B11D639FAA27F00DB11DAA1F649F66273D
:101EE000B00DA11D661F829F2227B00DA11D621F8C
:101EF000739FB00DA11D621F839FA00D611D221F46
:101F0000749F3327A00D611D231F849F600D211D29
:101F1000822F762F6A2F11249F5750409AF0F1F0AC
:101F200088234AF0EE0FFF1FBB1F661F771F881F15
:101F300091505040A9F79E3F510580F00C94B50F89
:101F40000C9400105F3FE4F3983ED4F386957795A8
:101F50006795B795F795E7959F5FC1F7FE2B880FBB
:101F6000911D9695879597F9089597F99F6780E851
:101F700070E060E008959FEF80EC089500240A94DB
:101F80001616170618060906089500240A94121654
:101F90001306140605060895092E0394000C11F487
:101FA000882352F0BB0F40F4BF2B11F460FF04C034
:101FB0006F5F7F4F8F4F9F4F089557FD9058440F8D
:101FC000551F59F05F3F71F04795880F97FB991F98
:101FD00061F09F3F79F08795089512161306140655
:101FE000551FF2CF4695F1DF08C0161617061806E2
:101FF000991FF1CF86957105610508940895E894BD
:10200000BB2766277727CB0197F908952F923F9238
:102010004F925F926F927F928F929F92AF92BF92F8
:10202000CF92DF92EF92FF920F931F93CF93DF93A4
:10203000CDB7DEB7CA1BDB0B0FB6F894DEBF0FBE01
:10204000CDBF09942A88398848885F846E847D844E
:102050008C849B84AA84B984C884DF80EE80FD8050
:102060000C811B81AA81B981CE0FD11D0FB6F894C6
:10207000DEBF0FBECDBFED0108955058BB27AA2784
:102080000E9455100C94CC0F0E94BE0F38F00E9495
:10209000C50F20F039F49F3F19F426F40C94BB0FC0
:1020A0000EF4E095E7FB0C94B50FE92F0E94DD0FCD
:1020B00058F3BA17620773078407950720F079F47D
:1020C000A6F50C94FF0F0EF4E0950B2EBA2FA02D61
:1020D0000B01B90190010C01CA01A0011124FF27D5
:1020E000591B99F0593F50F4503E68F11A16F040D0
:1020F000A22F232F342F4427585FF3CF46953795CF
:102100002795A795F0405395C9F77EF41F16BA0B93
:10211000620B730B840BBAF09150A1F0FF0FBB1F41
:10212000661F771F881FC2F70EC0BA0F621F731F8A
:10213000841F48F4879577956795B795F7959E3FE7
:1021400008F0B0CF9395880F08F09927EE0F979578
:10215000879508950E94BE100C94CC0F0E94C50F65
:1021600058F00E94BE0F40F029F45F3F29F00C9414
:10217000B50F51110C9400100C94BB0F0E94DD0F91
:1021800068F39923B1F3552391F3951B550BBB27A6
:10219000AA2762177307840738F09F5F5F4F220FEB
:1021A000331F441FAA1FA9F335D00E2E3AF0E0E8E2
:1021B00032D091505040E695001CCAF72BD0FE2F2C
:1021C00029D0660F771F881FBB1F261737074807C0
:1021D000AB07B0E809F0BB0B802DBF01FF27935878
:1021E0005F4F3AF09E3F510578F00C94B50F0C9478
:1021F00000105F3FE4F3983ED4F38695779567959A
:10220000B795F7959F5FC9F7880F911D96958795AC
:1022100097F90895E1E0660F771F881FBB1F6217CB
:1022200073078407BA0720F0621B730B840BBA0B89
:10223000EE1F88F7E09508950E94E50F88F09F57FC
:1022400098F0B92F9927B751B0F0E1F0660F771FDA
:10225000881F991F1AF0BA95C9F714C0B13091F0D0
:102260000E94FF0FB1E008950C94FF0F672F782FA5
:102270008827B85F39F0B93FCCF386957795679595
:10228000B395D9F73EF490958095709561957F4F01
:102290008F4F9F4F08950E94240F08F48FEF0895E9
:1022A0000E94240F880B990B0895A1E21A2EAA1BF5
:1022B000BB1BFD010DC0AA1FBB1FEE1FFF1FA217F6
:1022C000B307E407F50720F0A21BB30BE40BF50BF3
:1022D000661F771F881F991F1A9469F7609570957C
:1022E000809590959B01AC01BD01CF010895EE0F43
:1022F000FF1F0590F491E02D0994CF93DF93823076
:10230000910510F482E090E0E091E702F091E8029C
:1023100020E030E0C0E0D0E0309711F14081518101
:1023200048175907C0F04817590761F48281938113
:10233000209719F09B838A832BC09093E8028093A7
:10234000E70226C02115310519F04217530718F48A
:102350009A01BE01DF01EF010280F381E02DDCCFA5
:102360002115310509F1281B390B2430310590F472
:1023700012968D919C9113976115710521F0FB01C7
:102380009383828304C09093E8028093E702FD0167
:10239000329644C0FD01E20FF31F819391932250C6
:1023A00031092D933C933AC02091E5023091E60229
:1023B000232B41F420910201309103013093E60276
:1023C0002093E50220910001309101012115310592
:1023D00041F42DB73EB74091040150910501241BF3
:1023E000350BE091E502F091E602E217F307A0F465
:1023F0002E1B3F0B2817390778F0AC014E5F5F4F5B
:102400002417350748F04E0F5F1F5093E6024093A4
:10241000E5028193919302C0E0E0F0E0CF01DF910B
:10242000CF9108950F931F93CF93DF93009709F4F3
:102430008CC0FC013297138212820091E702109146
:10244000E8020115110581F420813181820F931F6B
:102450002091E5023091E6022817390779F5F093CB
:10246000E602E093E50271C0D80140E050E0AE170B
:10247000BF0750F412962D913C911397AD01211591
:10248000310509F1D901F3CF9D01DA0133832283AC
:1024900060817181860F971F8217930769F4EC01A1
:1024A00028813981260F371F2E5F3F4F31832083CC
:1024B0008A819B8193838283452B29F4F093E802E0
:1024C000E093E70242C01396FC93EE931297ED015E
:1024D000499159919E01240F351FE217F30771F4BA
:1024E00080819181840F951F029611969C938E9303
:1024F0008281938113969C938E931297E0E0F0E093
:10250000D80112968D919C911397009719F0F801BC
:102510008C01F6CF8D919C9198012E5F3F4F820FD9
:10252000931F2091E5023091E6022817390769F4DC
:10253000309729F41092E8021092E70202C0138249
:1025400012821093E6020093E502DF91CF911F9172
:102550000F910895A0E0B0E0E0EBF2E10C940A10D6
:10256000EC01009721F4CB010E947D11B8C0FC0161
:10257000E60FF71F9C0122503109E217F30708F418
:10258000ACC0D9010D911C91119706171707B0F037
:102590000530110508F49FC0C801049786179707F6
:1025A00008F499C002501109061B170B01931193EF
:1025B0006D937C93CF010E9412128DC05B01A01A13
:1025C000B10A4C01800E911EA091E702B091E80281
:1025D00040E050E0E12CF12C109709F44AC0A81516
:1025E000B905D1F56D907C901197630182E0C80E1A
:1025F000D11CCA14DB0480F1A3014A195B096A01EA
:1026000082E0C80ED11C1296BC9012971396AC9122
:10261000B5E0CB16D10440F0B282A383518340834E
:10262000D9016D937C930AC00E5F1F4FC301800FC9
:10263000911FF90191838083EB2DFA2FE114F104AE
:1026400031F0D7011396FC93EE93129744C0F093A8
:10265000E802E093E7023FC08D919C9111974817E3
:10266000590708F4AC017D0112960D90BC91A02D84
:10267000B3CF8091E5029091E60288159905E1F4C7
:1026800046175707C8F48091000190910101009707
:1026900041F48DB79EB74091040150910501841B10
:1026A000950BE817F907C8F4F093E602E093E5020A
:1026B000F901718360830FC0CB010E947D117C0101
:1026C000009759F0A801BE010E947913CE010E9423
:1026D0001212C70104C0CE0102C080E090E0CDB765
:1026E000DEB7EEE00C94261081E090E0F8940C94B4
:1026F0008913FB01DC0102C001900D924150504052
:10270000D8F70895FB01DC0101900D920020E1F75C
:062710000895F894FFCFCC
:102716000000E9028000000000009C01090134016C
:10272600E30165014301570100000000B60386037B
:10273600E6035A037E036A035B0350757368656498
:1027460021004F626A6563743A20004600416D625B
:1027560069656E743A20000D0A0048696768004D85
:102766006564004C6F77006E616E00696E66006F7F
:042776007666000083
:107E0000112484B714BE81FFF0D085E080938100F7
:107E100082E08093C00088E18093C10086E0809377
:107E2000C20080E18093C4008EE0C9D0259A86E02C
:107E300020E33CEF91E0309385002093840096BBD3
:107E4000B09BFECF1D9AA8958150A9F7CC24DD24C4
:107E500088248394B5E0AB2EA1E19A2EF3E0BF2EE7
:107E6000A2D0813461F49FD0082FAFD0023811F036
:107E7000013811F484E001C083E08DD089C08234E0
:107E800011F484E103C0853419F485E0A6D080C0E4
:107E9000853579F488D0E82EFF2485D0082F10E0AE
:107EA000102F00270E291F29000F111F8ED06801E7
:107EB0006FC0863521F484E090D080E0DECF843638
:107EC00009F040C070D06FD0082F6DD080E0C81688
:107ED00080E7D80618F4F601B7BEE895C0E0D1E017
:107EE00062D089930C17E1F7F0E0CF16F0E7DF06D8
:107EF00018F0F601B7BEE89568D007B600FCFDCFD4
:107F0000A601A0E0B1E02C9130E011968C91119780
:107F100090E0982F8827822B932B1296FA010C0160
:107F200087BEE89511244E5F5F4FF1E0A038BF0790
:107F300051F7F601A7BEE89507B600FCFDCF97BE46
:107F4000E89526C08437B1F42ED02DD0F82E2BD052
:107F50003CD0F601EF2C8F010F5F1F4F84911BD097
:107F6000EA94F801C1F70894C11CD11CFA94CF0C13
:107F7000D11C0EC0853739F428D08EE10CD085E9AC
:107F80000AD08FE07ACF813511F488E018D01DD067
:107F900080E101D065CF982F8091C00085FFFCCF94
:107FA0009093C60008958091C00087FFFCCF809118
:107FB000C00084FD01C0A8958091C6000895E0E648
:107FC000F0E098E1908380830895EDDF803219F02E
:107FD00088E0F5DFFFCF84E1DECF1F93182FE3DFCA
:107FE0001150E9F7F2DF1F91089580E0E8DFEE27F6
:047FF000FF270994CA
:027FFE00040479
:0400000300007E007B
:00000001FF
